{
  "contractName": "EthSwap",
  "abi": [
    {
      "inputs": [
        {
          "internalType": "contract Token",
          "name": "_token",
          "type": "address"
        }
      ],
      "stateMutability": "nonpayable",
      "type": "constructor"
    },
    {
      "anonymous": false,
      "inputs": [
        {
          "indexed": false,
          "internalType": "address",
          "name": "account",
          "type": "address"
        },
        {
          "indexed": false,
          "internalType": "address",
          "name": "token",
          "type": "address"
        },
        {
          "indexed": false,
          "internalType": "uint256",
          "name": "amount",
          "type": "uint256"
        },
        {
          "indexed": false,
          "internalType": "uint256",
          "name": "rate",
          "type": "uint256"
        }
      ],
      "name": "TokenPurchaged",
      "type": "event"
    },
    {
      "anonymous": false,
      "inputs": [
        {
          "indexed": false,
          "internalType": "address",
          "name": "account",
          "type": "address"
        },
        {
          "indexed": false,
          "internalType": "address",
          "name": "token",
          "type": "address"
        },
        {
          "indexed": false,
          "internalType": "uint256",
          "name": "amount",
          "type": "uint256"
        },
        {
          "indexed": false,
          "internalType": "uint256",
          "name": "rate",
          "type": "uint256"
        }
      ],
      "name": "TokenSold",
      "type": "event"
    },
    {
      "inputs": [],
      "name": "name",
      "outputs": [
        {
          "internalType": "string",
          "name": "",
          "type": "string"
        }
      ],
      "stateMutability": "view",
      "type": "function",
      "constant": true
    },
    {
      "inputs": [],
      "name": "token",
      "outputs": [
        {
          "internalType": "contract Token",
          "name": "",
          "type": "address"
        }
      ],
      "stateMutability": "view",
      "type": "function",
      "constant": true
    },
    {
      "inputs": [],
      "name": "buyTokens",
      "outputs": [],
      "stateMutability": "payable",
      "type": "function",
      "payable": true
    },
    {
      "inputs": [
        {
          "internalType": "uint256",
          "name": "_numberOfTokens",
          "type": "uint256"
        }
      ],
      "name": "sellTokens",
      "outputs": [],
      "stateMutability": "payable",
      "type": "function",
      "payable": true
    }
  ],
  "bytecode": "0x60806040526040518060400160405280600881526020017f45746820537761700000000000000000000000000000000000000000000000008152506000908051906020019062000051929190620000d2565b5060646002553480156200006457600080fd5b5060405162000c0f38038062000c0f83398181016040528101906200008a919062000200565b80600160006101000a81548173ffffffffffffffffffffffffffffffffffffffff021916908373ffffffffffffffffffffffffffffffffffffffff1602179055505062000297565b828054620000e09062000261565b90600052602060002090601f01602090048101928262000104576000855562000150565b82601f106200011f57805160ff191683800117855562000150565b8280016001018555821562000150579182015b828111156200014f57825182559160200191906001019062000132565b5b5090506200015f919062000163565b5090565b5b808211156200017e57600081600090555060010162000164565b5090565b600080fd5b600073ffffffffffffffffffffffffffffffffffffffff82169050919050565b6000620001b48262000187565b9050919050565b6000620001c882620001a7565b9050919050565b620001da81620001bb565b8114620001e657600080fd5b50565b600081519050620001fa81620001cf565b92915050565b60006020828403121562000219576200021862000182565b5b60006200022984828501620001e9565b91505092915050565b7f4e487b7100000000000000000000000000000000000000000000000000000000600052602260045260246000fd5b600060028204905060018216806200027a57607f821691505b6020821081141562000291576200029062000232565b5b50919050565b61096880620002a76000396000f3fe60806040526004361061003f5760003560e01c806306fdde03146100445780636c11bcd31461006f578063d0febe4c1461008b578063fc0c546a14610095575b600080fd5b34801561005057600080fd5b506100596100c0565b604051610066919061052d565b60405180910390f35b6100896004803603810190610084919061058a565b61014e565b005b6100936102af565b005b3480156100a157600080fd5b506100aa61046e565b6040516100b79190610636565b60405180910390f35b600080546100cd90610680565b80601f01602080910402602001604051908101604052809291908181526020018280546100f990610680565b80156101465780601f1061011b57610100808354040283529160200191610146565b820191906000526020600020905b81548152906001019060200180831161012957829003601f168201915b505050505081565b60006002548261015e9190610710565b9050600160009054906101000a900473ffffffffffffffffffffffffffffffffffffffff1673ffffffffffffffffffffffffffffffffffffffff166323b872dd3330856040518463ffffffff1660e01b81526004016101bf93929190610771565b6020604051808303816000875af11580156101de573d6000803e3d6000fd5b505050506040513d601f19601f8201168201806040525081019061020291906107e0565b503373ffffffffffffffffffffffffffffffffffffffff166108fc829081150290604051600060405180830381858888f19350505050158015610249573d6000803e3d6000fd5b507fa8a7473f10e62cf9687e243de1c3ac8b3cbc3dd04b96826beb3a65b59538581433600160009054906101000a900473ffffffffffffffffffffffffffffffffffffffff16346002546040516102a3949392919061080d565b60405180910390a15050565b6000600254346102bf9190610852565b905080600160009054906101000a900473ffffffffffffffffffffffffffffffffffffffff1673ffffffffffffffffffffffffffffffffffffffff166370a08231306040518263ffffffff1660e01b815260040161031d91906108ac565b602060405180830381865afa15801561033a573d6000803e3d6000fd5b505050506040513d601f19601f8201168201806040525081019061035e91906108dc565b101561036957600080fd5b600160009054906101000a900473ffffffffffffffffffffffffffffffffffffffff1673ffffffffffffffffffffffffffffffffffffffff1663a9059cbb33836040518363ffffffff1660e01b81526004016103c6929190610909565b6020604051808303816000875af11580156103e5573d6000803e3d6000fd5b505050506040513d601f19601f8201168201806040525081019061040991906107e0565b507fa1a99965d51c9524cab8010fa3fdaed6f987dbbe9103cb3bab4e1790f6c5bda333600160009054906101000a900473ffffffffffffffffffffffffffffffffffffffff1634600254604051610463949392919061080d565b60405180910390a150565b600160009054906101000a900473ffffffffffffffffffffffffffffffffffffffff1681565b600081519050919050565b600082825260208201905092915050565b60005b838110156104ce5780820151818401526020810190506104b3565b838111156104dd576000848401525b50505050565b6000601f19601f8301169050919050565b60006104ff82610494565b610509818561049f565b93506105198185602086016104b0565b610522816104e3565b840191505092915050565b6000602082019050818103600083015261054781846104f4565b905092915050565b600080fd5b6000819050919050565b61056781610554565b811461057257600080fd5b50565b6000813590506105848161055e565b92915050565b6000602082840312156105a05761059f61054f565b5b60006105ae84828501610575565b91505092915050565b600073ffffffffffffffffffffffffffffffffffffffff82169050919050565b6000819050919050565b60006105fc6105f76105f2846105b7565b6105d7565b6105b7565b9050919050565b600061060e826105e1565b9050919050565b600061062082610603565b9050919050565b61063081610615565b82525050565b600060208201905061064b6000830184610627565b92915050565b7f4e487b7100000000000000000000000000000000000000000000000000000000600052602260045260246000fd5b6000600282049050600182168061069857607f821691505b602082108114156106ac576106ab610651565b5b50919050565b7f4e487b7100000000000000000000000000000000000000000000000000000000600052601260045260246000fd5b7f4e487b7100000000000000000000000000000000000000000000000000000000600052601160045260246000fd5b600061071b82610554565b915061072683610554565b925082610736576107356106b2565b5b828204905092915050565b600061074c826105b7565b9050919050565b61075c81610741565b82525050565b61076b81610554565b82525050565b60006060820190506107866000830186610753565b6107936020830185610753565b6107a06040830184610762565b949350505050565b60008115159050919050565b6107bd816107a8565b81146107c857600080fd5b50565b6000815190506107da816107b4565b92915050565b6000602082840312156107f6576107f561054f565b5b6000610804848285016107cb565b91505092915050565b60006080820190506108226000830187610753565b61082f6020830186610753565b61083c6040830185610762565b6108496060830184610762565b95945050505050565b600061085d82610554565b915061086883610554565b9250817fffffffffffffffffffffffffffffffffffffffffffffffffffffffffffffffff04831182151516156108a1576108a06106e1565b5b828202905092915050565b60006020820190506108c16000830184610753565b92915050565b6000815190506108d68161055e565b92915050565b6000602082840312156108f2576108f161054f565b5b6000610900848285016108c7565b91505092915050565b600060408201905061091e6000830185610753565b61092b6020830184610762565b939250505056fea26469706673582212207f0146936cd26bac64a2395952e5267ab43abe0784069ce46f231eaffb7ef89264736f6c634300080a0033",
  "immutableReferences": {},
  "source": "// SPDX-License-Identifier: MIT\npragma solidity ^0.8.7;\nimport \"./Token.sol\";\ncontract  EthSwap {\n    string public name = \"Eth Swap\";\n    Token public token;\n    uint rate = 100;\n    event TokenPurchaged(\n        address account,\n        address token,\n        uint amount,\n        uint rate\n    );\n    event TokenSold(\n        address account,\n        address token,\n        uint amount,\n        uint rate\n    );\n    constructor(Token _token) {\n        token = _token;\n    }\n    function buyTokens() public payable {\n        uint numberOfToken = msg.value * rate;\n        require(token.balanceOf(address(this)) >= numberOfToken);\n        token.transfer(msg.sender, numberOfToken);\n        emit TokenPurchaged(msg.sender,address(token),msg.value,rate);\n    }\n     function sellTokens(uint _numberOfTokens) public payable{\n        uint ethAmount = _numberOfTokens / rate;\n        token.transferFrom(msg.sender,address(this), _numberOfTokens);\n        payable(msg.sender).transfer(ethAmount);\n        emit TokenSold(msg.sender,address(token),msg.value,rate);\n    }\n}",
  "sourcePath": "/Users/sonusharma/Documents/workspace/eth_swap/src/contracts/EthSwap.sol",
  "compiler": {
    "name": "solc",
    "version": "0.8.10+commit.fc410830.Emscripten.clang"
  },
  "schemaVersion": "3.4.3",
  "updatedAt": "2021-12-07T16:53:17.452Z",
  "networkType": "ethereum",
  "devdoc": {
    "kind": "dev",
    "methods": {},
    "version": 1
  },
  "userdoc": {
    "kind": "user",
    "methods": {},
    "version": 1
  }
}